:020000040800F2
:100000000807002001010008D5390008593500080B
:10001000D13900082D0B0008753C000800000000D5
:100020000000000000000000000000005D3C00082F
:10003000490B000800000000D9390008613C0008A5
:100040001B0100081B0100081B0100081B01000820
:100050001B0100081B0100081B0100081B01000810
:100060001B0100081B0100081B0100081B01000800
:10007000310B00083D0B00081B0100081B010008A4
:100080001B0100081B010008090A00081B010008E9
:100090001B0100081B0100081B0100081B010008D0
:1000A0001B0100081B0100081B0100081B010008C0
:1000B0001B010008693C00081B0100081B01000827
:1000C0001B0100081B0100081B0100081B010008A0
:1000D0001B0100081B0100081B0100081B01000890
:1000E0004D0B00081B0100081B010008DFF80CD0B5
:1000F00000F062FC00480047D544000808070020D3
:100100000648804706480047FEE7FEE7FEE7FEE7B1
:10011000FEE7FEE7FEE7FEE7FEE7FEE7653C0008D8
:10012000ED000008F0B480EA0102D40F4200B2EB07
:10013000410F02D20246084611464A0042D0C30D82
:10014000DDB2C1F3C752AD1A202D35DAC1F3160165
:1001500041F4000204B15242C5F1200602FA06F150
:100160002A411044B3EBD05F23D0C4B1012DA0EBE2
:10017000C35009DCF0BC4FF0004202EAC352DBB2CC
:1001800000F5000000F05DBB400000F1807000EB66
:10019000C350A0F1807040EAD170490009E04908DD
:1001A00041EAC071A0EBC35000F50000400800EB2D
:1001B000C350F0BC00F03CBB6142012202EB4101A4
:1001C000001BF6E7F0BC704781F00041AAE780F021
:1001D0000040A7E780EA010210B502F000434000AA
:1001E00022D04A001FD0010E01EB1261C0F356006D
:1001F000C2F3560240F4000042F40002A0FB0220C9
:1002000000047F39140400D0401C50EA124001D48D
:100210004000491EC2B20C0604EBD010401C40083E
:10022000802A02D003E0002010BD20F00100002948
:1002300000DA0020184310BD30B480EA010202F059
:10024000004530F0004221F0004013D090B1C30DC2
:10025000D40DC2F31601C0F31600E41A41F40001F4
:1002600040F400027D34914201D3641C00E0490057
:10027000002C02DA30BC002070474FF4000000234D
:10028000914201D3891A034340084FEA4101F7D153
:1002900051B1914202D14FF0004105E002D24FF03E
:1002A000010101E06FF0010103EBC450284430BCB0
:1002B00000F0BEBA2DE9FE4F804681EA0300C00F70
:1002C0000C46009021F0004123F00045B8EB0200FD
:1002D000A94105D24046214690461C460B4602469F
:1002E00023F00040104347D0270DC7F30A00C3F3A3
:1002F0000A510290401A019040286BDAC3F31300B0
:1003000040F4801B0098924620B10023D2EB030AF0
:1003100063EB0B0B01985946C0F14002504600F0C8
:1003200066FA06460D4650465946019A00F06EFAA6
:1003300010EB08006141002487EA115284EAE77358
:100340001A4340D0009A62B3019A012A4FEA075239
:1003500015DC001B61EB02014FF0004202EA07527C
:10036000CDE90042001C41F5801132462B4600F0D9
:10037000A5FA03B0BDE8F08F40462146F9E7001B1F
:1003800061EB0201001C41F5801300185B4120184D
:10039000A2F5001747EB030140EAD570B6196D418D
:1003A00011E06D084FEA360645EAC0754FEA07527C
:1003B000001B61EB0201001C41F5801149084FEA66
:1003C00030000019514132462B4603B0BDE8F04FD2
:1003D00000F065BA0098012240000023D0EB020231
:1003E00063EBE073009821464FEAE074B8EB00003D
:1003F00061EB0401E9E783F000435BE781F0004132
:1004000058E72DE9FE4F81EA030404F0004421F08F
:10041000004100944FF0000B23F0004350EA010428
:100420005ED052EA03045BD0C3F30A54C1F30A5509
:100430002C44A4F2F3340194A0FB0254C1F3130141
:1004400041F48011C3F3130343F4801301FB02440E
:1004500000FB034E840A970A44EA815447EA835713
:10046000A4FB076802958D0A05FB07854FEA932CCC
:1004700004FB0C542705029D4FEA065847EA16373D
:10048000B5EB08056EEB070C870E920E47EA811755
:1004900042EA8312A7FB0201B6EB0B0164EB0004F6
:1004A0002B0D43EA0C335E1844EB1C50DA465146E0
:1004B000E7FB0201C5F313044FEA0B3343EA14537D
:1004C0004FEA0432019C43EA0603A4F10C040294AF
:1004D000009CCDE900B400F0F1F903B0BDE8F08F65
:1004E00000200146F9E72DE9F04D81EA030404F00C
:1004F000004B21F0004514464FF0000A23F0004164
:1005000050EA050220D054EA01021DD0C5F30A5773
:100510000246C5F31303C1F31300C1F30A5640F4B6
:10052000801543F48013A7EB0608101BD64608F28B
:10053000FD3873EB050002D308F1010801E09218C1
:100540005B41B8F1000F03DA00200146BDE8F08DF1
:1005500000204FF48011064684460EE0171B73EB13
:10056000050705D3121B63EB050306434CEA010C98
:1005700049084FEA300092185B4150EA0107EDD17B
:1005800052EA030012D082EA040083EA050108431C
:1005900005D0101BAB4106D20122002306E0002249
:1005A0004FF0004302E06FF0010253101AEB060017
:1005B0004CEB085110EB0A0041EB0B01BDE8F04D8C
:1005C00000F06DB9002801DBC0F10040002901DB1B
:1005D000C1F10041814201D80120704700207047DD
:1005E000002801DBC0F10040002901DBC1F100411E
:1005F000814201D20120704700207047002801DBB2
:10060000C0F10040002901DBC1F10041814201D36A
:100610000120704700207047002801DBC0F1004036
:10062000002901DBC1F10041814201D9012070475D
:100630000020704730B5041E71F1000404DB4FF058
:100640000044404264EB0101141E73F1000405DB19
:100650001C464FF00043524263EB0403101A8B41D7
:1006600001D2012030BD002030BDC10F80EAE07012
:100670000844CA079623002100F0E3B8962300221D
:10068000114600F0DEB80EB5C10F80EAE0700844F4
:10069000CA07002140F233438DE80E000A460B469C
:1006A00000F00CF903B000BD00F0004220F0004063
:1006B000C10DC0F3160040F400007F2901DA0020CC
:1006C0007047962903DCC1F19601C84001E09639D4
:1006D0008840002AF4D04042704720F00040C10D0D
:1006E000C0F3160040F400007F2901DA00207047B3
:1006F000962903DCC1F19601C840704796398840BD
:10070000704700F0004230F000400AD0C10D01F502
:100710006071C0F3160042EA0151C208400711435C
:10072000704700200146704701F0004330B421F0CB
:10073000004150EA010206D00A0DA2F56072C1F331
:100740001301002A02DC30BC00207047440F44EA49
:10075000C104C100E01830BC00EBC25000F068B822
:1007600030B50B46014600202022012409E021FA81
:1007700002F59D4205D303FA02F5491B04FA02F57E
:100780002844151EA2F10102F1DC30BD2DE9F05F15
:100790000546002092469B468846064681464024F0
:1007A0001BE0284641464746224600F01DF95346C5
:1007B0005A46C01A914110D311461846224600F0FD
:1007C00016F82D1A67EB01084F462246012000213A
:1007D00000F00DF817EB00094E41201EA4F10104B2
:1007E000DFDC484631462A464346BDE8F09F202AD2
:1007F00004DB203A00FA02F1002070479140C2F178
:10080000200320FA03F3194390407047202A06DBA7
:10081000CB17203A41FA02F043EAE07306E041FACE
:1008200002F3D040C2F120029140084319467047BC
:100830000029A8BF7047401C490008BF20F00100F4
:10084000704710B4B0FA80FC00FA0CF050EA0104D2
:1008500004BF10BC704749B1CCF1200421FA04F464
:1008600011FA0CF118BF012121430843A3EB0C013D
:10087000CB1D4FEA00614FEA102042BF002010BCA0
:10088000704700EBC35010440029A4BF10BC704750
:10089000401C490008BF20F0010010BC704710B593
:1008A000141E73F1000408DA401C41F10001921893
:1008B0005B411A4301D120F0010010BD2DE9F04D3C
:1008C00092469B4611B1B1FA81F202E0B0FA80F291
:1008D00020329046FFF78BFF04460F4640EA0A009D
:1008E00041EA0B0153465A46084313D0114653EAD6
:1008F000010019D0C8F14002504600F075F80546D5
:100900000E46504659464246FFF771FF084305D050
:10091000012004E020463946BDE8F08D0020054363
:1009200046EAE0762C4337430A986305E40AA0EBD5
:1009300008000022FD0A44EA47540A3002D500208C
:100940000146E9E7010510196941DDE9084500198B
:100950006941BDE8F04DA2E7C1F30A52C1F31301AA
:1009600040F2FF3341F480119A4202DA002001463E
:10097000704740F233439A42A2F2334202DC5242C1
:1009800000F032B8FFF733BF30B5041E71F1000438
:1009900004DB4FF00044404264EB0101141E73F18C
:1009A000000405DB1C464FF00043524263EB040396
:1009B000994208BF904230BD1CB5094800900948D3
:1009C00001900546009C06E0E06840F0010394E8D1
:1009D000070098471034AC42F6D3FFF78BFB0000BA
:1009E000A4590008C4590008202A04DB203A21FA3F
:1009F00002F00021704721FA02F3D040C2F1200238
:100A0000914008431946704780B540F21000C2F289
:100A1000000000F031FC40F24000C2F20000BDE8EE
:100A2000804000F029BC0000B0B504460068816831
:100A3000C90709D0816821F00101816001F02EF819
:100A400021688968C90701D10020B0BD054602E0D0
:100A50008068C007F8D001F021F8411B2068032905
:100A6000F6D38168C907F3D0A06A40F01000A062F5
:100A7000E06A40F00100E0620120B0BDB0B582B094
:100A800004460020019021688A68D2074BD188680B
:100A900040F00100886040F20C00C2F200000068E3
:100AA0004DF68361C4F21B31A0FB0101880C01905B
:100AB0000198A0B1019801380190019878B101988E
:100AC00001380190019850B10198013801900198C6
:100AD00028B101980138019001980028EAD100F06E
:100AE000DDFF21688968C9071CD1054603E000BF06
:100AF0008068C00716D100F0D1FF411B2068032990
:100B0000F6D38168C907F3D1A06A40F01000A06253
:100B1000E06A40F00100E062002084F82400012037
:100B200002B0B0BD002002B0B0BD0000FEE7000082
:100B300040F27800C2F2000000F01EBD40F2341016
:100B4000C2F2000000F018BD704700004FF4805062
:100B500000F08ABEEFF3108072B600BFFEE700001F
:100B600070B582B004460020019094F8240001285A
:100B700002D1022002B070BD012084F8240020467A
:100B8000FFF752FF2046FFF779FF28B1002184F8D4
:100B9000241002B070BD00BF0646A06A41F20211E7
:100BA00088430230A06240F20C00C2F200000568E7
:100BB000022001F02FF8B5FBF0F040000190019801
:100BC000A8B100BF019801380190019878B101984F
:100BD00001380190019850B10198013801900198B5
:100BE00028B101980138019001980028EAD12068C5
:100BF000816841F00801816000F050FF21688A6837
:100C000012070FD4886840F00400886000F046FFA7
:100C100021688968490715D401216FF00302304625
:100C200022E000BF054602E088680007EAD500F030
:100C300035FF401B21680B28F6D388680007F3D5E1
:100C40000EE000BF054602E080684007E4D500F0F2
:100C500025FF411B20680B29F6D381684907F3D58E
:100C6000012010216FF01202A36A1A401143A16201
:100C7000002184F8241002B070BD00002DE9F0417D
:100C800081B00022009290F82420012A06D14FF072
:100C9000020E704601B0BDE8F08100BF8368D1F854
:100CA00004C0012280F82420D3B1D1F810E00368F9
:100CB000BCEB0E0404EB84049D6B04F10F044FF0B5
:100CC0001F0202FA04F225EA020222F440151BD99F
:100CD0009D634FF0000E9A68D2072BD123E000BF2E
:100CE000BCF1010F40F0948003684FF0000E9A6B46
:100CF0000D686FF3150242EAC5329A634FF0010C9A
:100D00009A68D2070FD015E000220E68CFF6F07275
:100D100002EB0E52A64032432A439A634FF0000E74
:100D20009A68D20706D19A6847F201048D69A243F6
:100D30002A439A604D7D03F10408012D00F1280239
:100D40002AD18E692027B6F5E04F164614BF4FF022
:100D5000010E464608BF4FF4806734683C43346058
:100D60000C7D012C1BD00A68092A02EB420427D90A
:100D7000DD681E3C07268F68A640B54307FA04F4D9
:100D80002C4322F00105102DDC6022D19C6844F434
:100D900000049C6001241DE00C7D012CE3D1202483
:100DA000002D14BF4FF0010E424608BF4FF480548F
:100DB00015682C4314600A68092A02EB4204D7D84C
:100DC0001D6907268F68A640B54307FA04F42C4333
:100DD0001C610024ACF1010720251426032F38BF25
:100DE00006EB87055F5940F6FF76C968B74339437C
:100DF000002C595148D042F20041C4F201018B420B
:100E000012D0816A4FF0010E41F0200181623BE077
:100E10000368826A4FF0010E42F0200282629A68F3
:100E2000D2073FF480AF85E7896809022CD499681E
:100E3000102A41F40001996026D140F20C01C2F25F
:100E4000000109684DF68362C4F21B32A1FB021255
:100E5000910C01EB8101490000910099A1B1009929
:100E600001390091009979B10099013900910099F7
:100E700051B1009901390091009929B100990139C6
:100E8000009100990029EAD1002180F824107046D1
:100E900001B0BDE8F0810000006842F20041C4F2F8
:100EA0000101884200D070472DE9F04381B040F243
:100EB0001008C2F200084046012100F0EFF8FFF7E9
:100EC000DDFB4FF20005C4F27F552946FFF7B4F968
:100ED000FFF717FC0026CBF6E07600223346FFF73B
:100EE000E9F946F26667C4F20A074FF066323B46FC
:100EF000FFF787FAFFF718FC044608F130000121DC
:100F000000F0CCF8FFF7BAFB2946FFF795F9FFF799
:100F1000F8FB00223346FFF7CDF94FF066323B462F
:100F2000FFF76FFAFFF700FC05462046FFF7E9FBE5
:100F300041F27B4847F6E127C4F2AE78C3F69477D6
:100F400042463B46FFF7CFFA0026C4F2490600228C
:100F50003346FFF7C8FAFFF7E7FB81462846FFF75D
:100F6000D0FB42463B46FFF7BEFA00223346FFF76E
:100F7000BAFAFFF7D9FB40F2CC21C2F20001C1F866
:100F8000009040F2D021C2F2000108604CF63A51C4
:100F9000C3F69371FFF71EF94CF63A510546C3F6B6
:100FA00013714846FFF716F92946FFF7BBF840F2E0
:100FB000D424C2F2000440F200362268C2F20006D5
:100FC000316805461046FFF7FFF80027C4F2E00736
:100FD0003946FFF7FFF802F0C5FE22683168064681
:100FE0001046FFF7F1F83946FFF7F4F802F043FE38
:100FF000074630462946FFF7EDF80446484639468D
:10100000FFF7E8F82146FFF78DF8044638462946F1
:10101000FFF7E0F8054648463146FFF7DBF80146A2
:101020002846FFF7D1F840F2C427C2F200074CF679
:10103000CD463968C3F6CC5605462046324603F005
:101040001FFA40F2C824C2F2000421683860284622
:10105000324603F015FA40F2A821C2F200010A78E4
:101060002060013A032A01B0BDE8F04388BF704711
:10107000DFE802F00210060A486803F03BB800BF40
:10108000D1E9030103F07CB948688A69496903F032
:101090008FB800BF886803F02BB9000000680239E0
:1010A0003C234022032938BF02EB8103C05870471C
:1010B00010B5044690F82400012804BF022010BD9A
:1010C000012084F824002046FFF7D8FC20B100213D
:1010D00084F8241010BD00BF42F204422168A06AC7
:1010E000C4F2010243F20103984302F57F7300F555
:1010F00080509942A06203D0A06A20F4801006E0DC
:10110000106810F4702FF7D0A06A40F48010A0622D
:10111000A06AC0055CBF0020E062002084F82400C3
:101120006FF004040C604C68640548BF10BD88680B
:1011300000F4E040B0F5E04F0CD1994206D0886849
:1011400040F402108860002010BD00BF106810F449
:10115000702FF4D0886840F400408860002010BDF3
:1011600010B5044690F82400012804BF022010BDE9
:10117000012084F824002046FFF780FC20B10021E4
:1011800084F8241010BD00BF42F204422168A06A16
:10119000C4F2010243F20103984302F57F7300F5A4
:1011A00080509942A06203D0A06A20F4801006E02B
:1011B000106810F4702FF7D0A06A40F48010A0627D
:1011C000A06AC0055CBF0020E062002084F8240013
:1011D0006FF004040C604C6844F080044C604C6870
:1011E000640548BF10BD886800F4E040B0F5E04FEA
:1011F0000CD1994206D0886840F402108860002023
:1012000010BD00BF106810F4702FF4D0886840F44F
:1012100000408860002010BD90F82420012A04BFFF
:101220000220704780B503689A68D2070CD142F259
:10123000044CC4F2010CACF104029342DCF804E467
:1012400008BF1EF001020BD0816A41F020018162CB
:101250000121002280F82420BDE880400846704724
:10126000DCF80020096822F470221143CCF8001049
:101270000021EEE77047000070B50446006805687D
:101280004668B10627D515F0020124D0A16AC90627
:1012900003D4A16A41F40071A162816801F4602164
:1012A000B1F5602F10D1217B71B9416821F0200187
:1012B0004160A06A20F48070A062A06AC00403D4D8
:1012C000A06A40F00100A0622046FFF7D3FF20682B
:1012D0006FF012010160310633D515F0040130D0F2
:1012E000A16AC90603D4A16A41F40051A1628168D0
:1012F00001F4E041B1F5E04F10D1416821F08001E7
:101300004160A06A20F48050A062A06AC00511D498
:10131000A06A40F00100A0620CE000BF41684905EE
:1013200008D4816801F46021B1F5602F02D1217BDE
:101330000029E2D02046FFF7AFFD20686FF00C01D6
:10134000016070060ED515F0010008BF70BDA06ADF
:1013500040F48030A062204600F0B2F820686FF0C0
:101360000101016070BD0000002804BF012070472A
:10137000B0B50446806A28B121688868C0070CD1DE
:1013800015E000BF0020E06284F82400204600F051
:1013900099F821688868C00709D0886820F00100A2
:1013A000886000F07BFB21688A68D20726D1A06A9A
:1013B000C0063AD4A06A41F2021290430230A06201
:1013C000E069D4E9013240EA030C531EB3FA83F317
:1013D0005D091346B2F5807F18BF2B02207D257B67
:1013E00001284CEA45002CD135B3A56A45F020050B
:1013F000A562E56A45F00105E56222E0054602E0E6
:101400008868C007D3D000F049FB401B216803283F
:10141000F6D38868C007F3D0A06A40F01000A0623D
:10142000E06A40F00100E062A06AA06A40F01000AB
:10143000A0620120B0BD00BFA56903EB4533A3F551
:10144000C0534D68B2F5807F25F4694543EA050332
:101450004B608B684FF2FD75CFF6E17503EA05032B
:1014600043EA00038B6001D0012A07D122690023DF
:10147000CFF6F07303EB025201E000BF0022CB6A0B
:1014800023F470031A43CA62896840F6FE62CFF6FD
:101490001F721140814207D10020E062A16A01223F
:1014A00062F30101A162B0BDA06A40F0100020F01B
:1014B0000200A062E06A40F00100E0620120B0BDDD
:1014C0007047000080B586B0006842F60001C4F2A3
:1014D000010188424FF00001CDE90411CDE902116C
:1014E0001ED042F20041C4F20101884241D141F2D2
:1014F0001800C4F20200016841F400710160016843
:1015000001F4007101910199016841F00401016049
:10151000006800F0040001900198012017E000BF6E
:1015200041F21800C4F20200016841F480610160D8
:10153000016801F4806101910199016841F00401A1
:101540000160006800F00400019001980220029000
:101550000320039040F60000C4F2010002A900F04D
:101560008FF912200121002200F018FB122000F058
:1015700003FB06B080BD000010B5D0E90FCE0168B6
:10158000DCF800300A6823FA0EF35C072AD512F063
:10159000040427D00A68920603D40A6822F00402E1
:1015A0000A602F22C4F20202914240F20402C4F205
:1015B00002025BDD3023C4F20203994272D044235D
:1015C000C4F20203994273D05823C4F20203994231
:1015D00040F07A804FF480231360C16A002940F004
:1015E00098806FE09C0727D512F0020424D00A6887
:1015F000920606D40A6822F00A020A60012280F8E4
:1016000021202F22C4F20202914240F20402C4F2CD
:1016100002023BDD3023C4F20203994260D044232E
:10162000C4F2020399425FD05823C4F202039942E4
:1016300060D14FF4003365E01B0743D512F0080278
:1016400008BF10BD0A6822F00E020A60012101FAEB
:101650000EF2CCF80420816380F82110016B002287
:10166000002980F8202054D12CE000BF0823C4F2C8
:101670000203994222D01C23C4F20203994223D1CF
:1016800040231360C16A002943D11BE00823C4F240
:10169000020399422CD01C23C4F20203994229D19F
:1016A00020232FE04FF480631360C16A89BB09E0F7
:1016B0004FF480431360C16A59BB03E004231360F5
:1016C000C16A31BB10BD00BF02F168044FF08063F6
:1016D000A14208BF4FF480031360C16AC9B9F1E7A2
:1016E0004FF400730EE000BF4FF400530AE000BF58
:1016F000022307E002F168044FF00073A14208BF23
:101700004FF400131360816A0022002980F8202022
:10171000D8D0BDE810400847014600284FF001002E
:1017200008BF70472DE9F043D1F800C04FF6F873B9
:10173000CBF6FD734CF6CD426344CCF6CC42A3FB12
:1017400002236FF0030202EA93020023C4F20203B1
:1017500001F10C08C1E90F320222D1E9019E98E89B
:10176000F00181F82120DCF8002043F6F0739A4361
:1017700042EA090242EA0E0222432A4332433A4332
:1017800042EA0802CCF8002000228A6381F8210096
:1017900081F820200020BDE8F043704790F820C079
:1017A000BCF1010F04BF02207047F0B54FF0010EED
:1017B00080F820E090F821C0BCF1010F26D14FF055
:1017C000020C80F821C04FF0000CC0F838C0D0E9FE
:1017D00000C4C56AC66BDCF80070102C27F0010746
:1017E000CCF80070006C0EFA00F070600846CCF87F
:1017F000043004BF10460A46CCF80800CCF80C2090
:10180000DCF8000045B140F00E000DE0002180F84A
:1018100020100220F0BD00BF20F00400CCF8000032
:10182000DCF8000040F00A00CCF80000DCF8000012
:1018300040F00100CCF800000020F0BDB0B5044637
:1018400000F02CF9054640F20400C2F200000078D6
:10185000611C18BF044400BF00F020F9401BA042E7
:10186000FAD3B0BD7047000040F21441C4F2010148
:101870000A68024214BF08607047FFF7F3BF000018
:101880002DE9F04F82B00E68002E00F0FD8041F28D
:101890000042C4F20102042340F2004E904208BF0D
:1018A00003234FF6FF7CC4F2010E009300240123B2
:1018B000C1F2100C4FF0000A4FF000094BE000BFDE
:1018C00041F20002C4F20102009F904208BF0227C9
:1018D00004F00C030F229A402BEA020207FA03F3EA
:1018E0004FEA9A051A4346F825204E6840F20C4507
:1018F000F202DEF8082054BF22EA080242EA080297
:10190000C4F20105CEF808202A68B30254BF22EAC7
:10191000080242EA08022A60B303DEF8042054BF3A
:1019200022EA080242EA0802F303CEF80420DEF8B5
:1019300000204FF0010354BF22EA080242EA0802E5
:10194000CEF800200E680AF1010A36FA0AF204F114
:10195000040400F0998003FA0AFB16EA0B08F1D0A0
:101960004E68664512DC122E56D8DFE806F0350BBD
:101970004D4955555555555555555555555555453B
:10198000510000BFD1F80C9046E000BF4FF6FF7247
:10199000C1F2210296420FDC0022C1F211029642EE
:1019A0001AD00022C1F21202964215D00022C1F2D2
:1019B0002102964210D02FE00022C1F2220296426C
:1019C0000AD00022C1F23102964205D00022C1F2B3
:1019D0003202964220D100BF8A684AB1012A14BF60
:1019E000C0F814B0C0F810B04FF0080914E000BF00
:1019F0004FF0040910E000BFCA6802F104090BE0CF
:101A00004FF0000908E000BFCA6802F1080903E0CE
:101A1000CA6802F10C0900BF02462646B8F5807F6D
:101A200024BF0432203E17680F25B54027EA05057C
:101A300009FA06F635431560CA79D2067FF582AFFA
:101A400041F21803C4F202031A68AEF57E7642F042
:101A500001021A601A6802F001020192019A2AF04A
:101A6000030256F802B040F60002C4F201029042AE
:101A700008D040F60042C4F2010290427FF420AF49
:101A8000012725E7002723E702B0BDE8F08F00001B
:101A9000002A08BF090401617047000040F20430C9
:101AA000C2F200000068704740F2040040F20431C6
:101AB000C2F20000C2F2000100780A681044086017
:101AC0007047000080B542F20000C4F202000168D5
:101AD00041F010010160032000F08CF80F2000F0AD
:101AE00005F800F027F8002080BD000070B540F236
:101AF0000406C2F2000640F20C013278C2F2000184
:101B00004FF47A730968B3FBF2F20446B1FBF2F1C9
:101B1000084600F08FFE0F2C4FF0010508D838B9A9
:101B20004FF0FF3021460022002500F037F87460A6
:101B3000284670BD82B041F21800C4F2020001686C
:101B4000022241F001010160016801F001010191EF
:101B50000199416841F080514160406800F0805037
:101B6000009000980420C4F20100016862F31A6139
:101B7000016002B070470000002848BF704700F0C5
:101B80001F01012202FA01F11C2202EAD0004EF2EA
:101B90000012CEF2000281507047000010B54EF6E0
:101BA0000C5CCEF2000CDCF80030C3F3022E8EF099
:101BB0000704042C28BF0424BEF103034FF0FF3EAA
:101BC0000EFA04F438BF0023A14399400EFA03F340
:101BD0009A43114300F00F0200F160430901043AF7
:101BE00003F564436244002848BF02F10C031970F6
:101BF00010BD00004EF60C51CEF200010A684FF6FF
:101C0000FF031A4060F30A2242F0806040F0FD704A
:101C100008607047012821D002280DD0102808D173
:101C200041F20401C4F202010A6851F8040CC00137
:101C300034D40020704700BF80B500F0DBF941F2DA
:101C40000401C4F2020109680222C1F3813102EBEE
:101C50004101B0FBF1F0BDE88040704741F2040063
:101C6000C4F20200C16940F202320A40B2F5817F3B
:101C700004BF4FF40040704701F44071B1F5407F5C
:101C800018D0B1F5007F1CBF00207047006A49F6EC
:101C90004041800701EAE070704700BFC2F3834013
:101CA00015A3185CD2030DD440F60012C0F23D0219
:101CB000504313E050F8040C4FF22441800301EA32
:101CC000E07070470A6810A3C2F340429A5C41F288
:101CD0000023C0F27A03B3FBF2F2504309684902D1
:101CE00048BF70474AF6AB214000CAF6AA21A0FBC4
:101CF00001014808704700BF0203040506070809F0
:101D00000A0B0C0D0E0F1010010200002DE9F0411E
:101D100082B00446007841F21C06C007C4F20206F5
:101D20004AD030685FEAC00808D4306840F080507C
:101D30003060306800F080500190019847F2000751
:101D4000C4F200073868C00512D4386840F48070C7
:101D50003860FFF7A3FE05463868C00508D4FFF7D2
:101D60009DFE401B6428F7D9032002B0BDE8F08136
:101D7000706810F4407012D0616801F440718842BC
:101D80000DD0706840F24042C4F24222012320F498
:101D9000407113600023C0071360716026D1706822
:101DA000616820F440700843B8F1000F706003D4FC
:101DB000306820F0805030602068810707D556F8E1
:101DC000181CA26821F44041114346F8181CC006B3
:101DD00007D556F8180CE16820F48000084346F84F
:101DE000180C002002B0BDE8F08100BFFFF756FEDE
:101DF000054641F2883700BF70688007CFD4FFF7EF
:101E00004DFE401BB8424FF00300F5D9EAE7000051
:101E1000002804BF012070472DE9F04381B042F251
:101E20000008C4F202080446D8F800000D4600F08D
:101E3000070088420CD2D8F8000020F007002843A1
:101E4000C8F80000D8F8000000F00700A8426CD1E4
:101E5000206841F204098107C4F2020917D541073D
:101E600005D5D9F8001041F4E061C9F80010010768
:101E700005D5D9F8001041F46051C9F80010D9F81F
:101E80000010A26821F0F0011143C9F80010C0074A
:101E900042D1D8F8000000F00700A8420CD9D8F8C9
:101EA000000020F007002843C8F80000D8F8000020
:101EB00000F00700A84238D12068410707D5D9F8BB
:101EC0000010E26821F4E0611143C9F80010000736
:101ED00008D5D9F80000216920F4605040EAC1001B
:101EE000C9F80000D9F8002002F00C00082841F2DF
:101EF0000020C0F27A004DD145F28E13C2F3834127
:101F0000C0F60003595CD20338D440F60010C0F28A
:101F10003D0048433EE000BF606859F8041C0228B9
:101F200008D0012826D1890306D4012001B0BDE8DC
:101F3000F08300BF8901F8D5D9F8001021F0030122
:101F40000843C9F80000FFF7A9FD064641F28837AB
:101F5000D9F80000616800F00C00B0EB810F98D058
:101F6000FFF79CFD801BB842F2D9032001B0BDE809
:101F7000F08300BF8907D8D5DEE700BFD9F800207D
:101F800045F28C13C2F34042C0F600039A5C48430A
:101F9000B0FBF2F0D9F8001045F27412C1F303114E
:101FA000C0F60002515C40F20C0220FA01F140F24E
:101FB0000800C2F200000068C2F200021160FFF7E0
:101FC00095FD002001B0BDE8F083000040F20C0058
:101FD00041F20401C2F20000C4F202010068096883
:101FE00045F28412C1F30221C0F60002515CC840E0
:101FF0007047000040F20C0041F20401C2F2000000
:10200000C4F202010068096845F28412C1F3C221DA
:10201000C0F60002515CC84070470000002804BFB1
:10202000012070472DE9F04182B00446007841F26A
:102030000006C007C4F202060CD0706800F00C0065
:10204000042840F081803068800303D56068002850
:1020500000F04681207880071BD5706810F00C0FC7
:1020600009D0706800F00C00082840F08780706884
:10207000C00300F183803068800703D52069012800
:1020800040F02E813068616920F0F80040EAC1001C
:1020900030602078000713D4207840072CD4E569FD
:1020A000002D00F01881706800F00C00082840F046
:1020B000A780012D40F00481012002B0BDE8F0812D
:1020C000A069002800F084800020C4F24220012191
:1020D000C0F88014FFF7E2FC054600BF706A800775
:1020E00000F1B280FFF7DAFC401B0228F6D903208A
:1020F00002B0BDE8F08100BFF0695FEAC00808D413
:10210000F06940F08050F061F06900F0805000907C
:10211000009847F20007C4F200073868C00549D4A8
:10212000386840F480703860FFF7B8FC054600BF9F
:102130003868C0053ED4FFF7B1FC401B6428F7D9CE
:10214000032002B0BDE8F081706800F00C000828A0
:1021500003D17068C0033FF576AF6168306800292D
:1021600000F00C81B1F5A02F00F00081B1F5803FA7
:1021700040F01A8140F480301CE100BF2069002843
:1021800040F20000C4F2422000F08880012101608A
:10219000FFF784FC054600BF306880073FF572AF4B
:1021A000FFF77CFC401B0228F6D9032002B0BDE8F3
:1021B000F08100BFE168306A002900F09D800529A8
:1021C00000F09280012940F0AF8040F00100B1E0C2
:1021D0000020C4F242200021C0F88014FFF75EFC0A
:1021E000054600BF706A80077FF556AFFFF756FCC3
:1021F000401B0228F6D9032002B0BDE8F08100BFE1
:102200000027C4F2422700203866FFF747FC022D62
:1022100005460DD13068800140F1DE80FFF73EFCBD
:10222000401B02284FF00300F4D902B0BDE8F08152
:10223000306880014FD5FFF731FC401B02284FF07A
:102240000300F5D9F1E700BF40F20C00C2F2000034
:10225000006844F6D351C1F26201A0FB0101480AB3
:10226000019000BF00BF0198411E002801913FF47A
:1022700013AF00BF0198411E002801913FF40CAF3D
:1022800000BF0198411E002801913FF405AF00BF37
:102290000198411E00280191E4D1FDE60021016072
:1022A000FFF7FCFB054600BF306880077FF5F1AE05
:1022B000FFF7F4FB401B02284FF00300F4D9B4E70A
:1022C0007068216A00F480328A4209D1616A00F4A0
:1022D0007010884204D1002002B0BDE8F08100BF38
:1022E000012002B0BDE8F08140F004003062306AA5
:1022F00040F001001EE000BF20F001003062306AB3
:1023000020F004003062FFF7C9FB054641F2883730
:10231000306A800720D5FFF7C1FB401BB8424FF061
:102320000300F5D981E700BF20F001003062306A78
:1023300020F004003062FFF7B1FB054641F2883718
:10234000306A800708D4FFF7A9FB401BB842F7D9D1
:10235000032002B0BDE8F081B8F1000F3FF59FAE59
:10236000F06920F08050F06199E600BF40F48020D1
:102370003060306840F480301CE000BF20F48030D2
:102380003060306820F480203060FFF787FB05461E
:10239000306880037FF55EAEFFF780FB401B64284A
:1023A0004FF00300F4D940E720F48030306030680B
:1023B00020F480203060FFF771FB05463068800311
:1023C0003FF548AEFFF76AFB401B6428F6D90320AF
:1023D00002B0BDE8F08100BF206AB0F5803F05D1B2
:1023E0007168A26821F40031114371607168626AFA
:1023F00021F4741111430843706001203866FFF71F
:102400004DFB0446306880013FF565AFFFF746FBA2
:10241000001B02284FF00300F4D906E7B0B5416D68
:10242000054640F6000412A0C4F2010402F004FACA
:10243000286804F52051884218BFB0BD20461021FD
:102440000122FFF725FB204610210022FFF720FB89
:1024500040F27000C2F20000411C40F27810C2F25B
:1024600000000A460323BDE8B04000F0DDB800BF1D
:1024700048414C5F5350495F4572726F7243616CC3
:102480006C6261636B3A25640A00000070B528B184
:10249000416A29B100210161142106E0012070BDCB
:1024A0004168B1F5827F02D01C21002242500026F3
:1024B000866290F8511029B980F85060054600F006
:1024C00039F82846022180F8511090E82E0002F4D5
:1024D00082720C6803F4044324F040040C601A4434
:1024E00005F4006305691A4405F0020345691A44BE
:1024F00005F001038569C4691A4405F400731A44A0
:1025000004F03803046A1A4404F08003846A1A430E
:1025100004F400531A430A60042202EA15424A6096
:10252000CA6922F40062CA610121466580F851102F
:10253000304670BD2DE9F04186B040F600050446F6
:10254000C4F20105006805F520510027884205976F
:10255000CDE90377029703D006B0BDE8F08100BF54
:1025600041F21800C4F20200016802AE41F4805149
:102570000160016840F21C0801F480510191019949
:102580000168C4F2020841F00401016000683146AC
:1025900000F0040001900198A02002900220039016
:1025A000032005902846FFF76BF94020CDE902078C
:1025B000284631460497FFF763F940F27005C2F2EE
:1025C0000005284640F8088F8026C0E90177C0E959
:1025D0000367C0E90577C761FFF79EF8002818BFB9
:1025E000FEF7B8FA05F10800EC6240F23415E06439
:1025F00008F11400C2F200051021002285E847000E
:102600002846C5E90422C5E90622FFF785F8002817
:1026100018BFFEF79FFAA5646C6206B0BDE8F081B2
:10262000704700007047000070B590F85150012DC0
:1026300008D100294FF0010C18BF002A0ED16046C6
:1026400070BD00BF4468B4F5827F0DD1042D4FF0FA
:10265000020CF4D18568002DEBD0F0E7002BEED012
:1026600090F85050012D01D1022070BD012580F855
:10267000505090F851500024042D1CBF052580F8BF
:102680005150446501638386C38682638387C38711
:10269000C0E9104490F8511043F6FD1343F60526A7
:1026A000C0F60003C0F600060568D0F84CC0042947
:1026B00008BF1E4643F60D2143F6B923C0F60001BC
:1026C000C0F6000308BF0B4643F6DD11C0F600015B
:1026D000CCE90A36CCE90C14C38F064605F10C018F
:1026E0006046FFF75BF838B1706D40F01000706520
:1026F000012086F8504070BD3568B06C696805F1FE
:102700000C0241F001016960C0E90A44C0E90C44CF
:10271000316BF38EFFF742F840B1706D40F010005E
:102720007065002086F85000012070BD3068354685
:102730000168490603D4016841F0400101604FF08F
:10274000000C85F850C0416841F0200141604168AB
:1027500041F002014160604670BD00002DE9F0418A
:1027600040F60004C4F20104006804F520518842D8
:1027700018BFBDE8F0812046102101224FF001086A
:10278000FFF786F940F27006C2F200067078B17861
:102790008001377840EA9100FDF775FF4DF64A0257
:1027A00042F2FB13C4F61252C4F21903FDF729FEDC
:1027B0004FF68073C4F2CF030022FDF794FEFDF7BD
:1027C000B3FF054640F23010C2F20000012F056051
:1027D00002D1716804E000BF294686F80080756068
:1027E0002846FDF7F1FC40F6DB71C4F2C90101F0A7
:1027F0000BFB40F2D427C2F2000739687560FDF781
:1028000091FC4CF6E431C4F2961101F0FDFA386007
:10281000204610210022FFF73BF9711C40F278108E
:10282000C2F200000A460323BDE8F041FFF7FCBEF8
:1028300070470000411E0020B0EB116F1CBF01204B
:1028400070474EF21002CEF2000251604EF6235154
:10285000CEF20001F0230B700721906011607047E9
:10286000704700007047000090F83C20012A04BF28
:1028700002207047B0B501F108053CCDD1E900CE8A
:1028800023F47C5322F470521A432EF4F0431A437B
:102890002CF4E0431A4324F4C0431A432A43C96981
:1028A00022F48042036811435964002180F83C10EF
:1028B0000020B0BD90F83C20012A4FF0020236D033
:1028C00010B580F83D200268D2F804E0D2F808C0C4
:1028D0000C682EF07003234340F2FF74C4F200042E
:1028E000A24253600ADCB2F1804F13D040F20043A1
:1028F000C4F200039A420DD011E000BF42F600433B
:10290000C4F201039A4205D040F60003C4F200036A
:102910009A4204D149682CF0800319439160012147
:10292000002280F83D1080F83C20BDE810401046A1
:1029300070470000002804BF0120704710B590F8D0
:102940003D1031B9002180F83C10044600F070F8C9
:102950002046022180F83D10016840F2FF740B68A8
:10296000C4F2000442F6004CA142C4F2010C15DC92
:10297000B1F1804F1AD040F20042C4F200029142FD
:1029800014D0A14218DCB1F1804F1DD040F20042BA
:10299000C4F20002914217D01AE000BF614505D091
:1029A00040F60002C4F200029142EAD1826823F0AC
:1029B00070031343A142E6DD614505D040F60002F5
:1029C000C4F20002914203D1026923F4407313431D
:1029D000846923F08002D0F804E0C3682243614593
:1029E0000A60CB62C1F828E002D14269CCF83020FD
:1029F00001224A610B69DB0703D00B6923F0010355
:102A00000B6180F8462080F83E2080F83F2080F857
:102A1000402080F8412080F8422080F8432080F850
:102A2000442080F8452080F83D20002010BD0000A3
:102A300080B582B0006840F20041C4F200018842D3
:102A400014D042F60041C4F2010188420CD141F297
:102A50001800C4F20200016841F4006101600068DE
:102A600000F400600190019802B080BD41F21800AE
:102A7000C4F202004168002241F002014160406856
:102A8000012100F00200009000981D20FFF786F859
:102A90001D2002B0BDE88040FFF76EB890F83D10F1
:102AA00001291CBF01207047022180F83D100068F9
:102AB00040F2FF72C168C4F20002904241F001018D
:102AC000C16009DCB0F1804F12D040F20041C4F285
:102AD000000188420CD012E042F60041C4F201012C
:102AE000884205D040F60001C4F20001884206D1B8
:102AF000816801F00701062904BF002070470168C2
:102B000041F00101016000207047000090F83C2076
:102B1000012A4FF002026CD080B580F83D20D0F839
:102B200000C04FF67772DCF8083023EA0202CCF8D6
:102B300008200B684F2B29DC1F2B45DD202B46D0AE
:102B4000302B44D0402B40F0AF80D1F804E0C9686E
:102B5000DCF82030DCF8202022F00102CCF8202024
:102B6000DCF8182022F0F00242EA011123F00A02F8
:102B700042EA0E02CCF81810CCF82020DCF808103D
:102B800041F0470121F0300128E000BF6F2B33DD19
:102B9000B3F5005F74D0B3F5805F21D0702B40F0A7
:102BA0008380D1E901E3C968DCF8082043EA0E0319
:102BB00022F47F4243EA01211143CCF80810DCF8EB
:102BC000081041F0770109E00BB1102B6CD1DCF853
:102BD000081021F07001194341F00701CCF80810EA
:102BE0000022012180F83D10002180F83C10BDE852
:102BF00080401046704700BF502B21D0602B53D12E
:102C0000D1F804E0C968DCF82030DCF8202022F09C
:102C10001002CCF82020DCF8182022F4704242EA9E
:102C2000013123F0A00242EA0E12CCF81810CCF8C1
:102C30002020DCF8081041F0670121F01001CDE7F9
:102C4000D1F804E0C968DCF82030DCF8202022F05C
:102C50000102CCF82020DCF8182022F0F00242EA31
:102C6000011123F00A0242EA0E02CCF81810CCF847
:102C70002020DCF8081041F0570121F02001ADE7D9
:102C8000D1E901E3C968DCF8082043EA0E0322F425
:102C90007F4243EA01211143CCF80810DCF8081008
:102CA00041F480419AE700BF01229AE77047000093
:102CB00070B504460068C5680669B10716D515F0F9
:102CC000020113D06FF002010161012121778069B7
:102CD000800703D02046FFF7E9FF05E0204600F01B
:102CE0008FF8204600F010FA00202077700719D5E1
:102CF00015F0040016D020686FF004010161022174
:102D00002177806910F4407F04D02046FFF7CEFF82
:102D100006E000BF204600F073F8204600F0F4F90A
:102D200000202077300717D515F0080014D0206850
:102D30006FF00801016104212177C069800703D089
:102D40002046FFF7B3FF05E0204600F059F8204683
:102D500000F0DAF900202077F00619D515F0100000
:102D600016D020686FF01001016108212177C06939
:102D700010F4407F04D02046FFF798FF06E000BF24
:102D8000204600F03DF8204600F0BEF900202077F4
:102D9000F00718BF15F0010002D1300609D412E087
:102DA00020686FF001010161204600F01DFA300635
:102DB00009D515F0800006D020686FF08001016110
:102DC0002046FFF74DFD700609D515F0400006D0EE
:102DD00020686FF040010161204600F041FAB00622
:102DE00058BF70BD15F0200008D021686FF0200298
:102DF00020460A61BDE87040FFF734BD70BD000099
:102E00007047000090F83C30012B04BF022070474F
:102E10004FEAB202032A00F2F1802DE9F043DFE825
:102E200002F003A53B7500BF036842F600461D6A29
:102E30001A6AC4F2010622F001021A621A465C689C
:102E400052F818CFB3428E68D1F800E025F00205A1
:102E500045EA06050CD1CE68D1E9057824F4407422
:102E600025F00C0526F004063C43354344EA0804EB
:102E70002CF0730747EA0E075C609F614F68096991
:102E80005F631D629F6947F008079F619F6927F094
:102E900004079F61A6E000BF036842F600461D6A72
:102EA0001A6AC4F2010622F480721A621A46D3F832
:102EB00004C052F81CEFB3428E680C6825F400750C
:102EC00045EA06250FD1CE68D1E90598360240F2D1
:102ED000FF4725F44065BE4335432CF4405748EA8C
:102EE000090647EA061C2EF073072743C3F804C0FF
:102EF000DF614F680969DF631D62DF6947F008071A
:102F0000DF61DF6927F00407DF616BE0036842F6E9
:102F10000047D3F820C01A6AC4F2010722F4805295
:102F20001A621A465C6852F81C5FD1F800E08E689D
:102F3000BB4204D14F6924F4804444EA87142CF442
:102F4000005747EA063725F4E64646EA0E265C6057
:102F5000DE614E6809691E641F62DF6947F400671D
:102F6000DF61DF6927F48067DF613AE0036842F6DA
:102F700000461D6A1A6AC4F2010622F010021A62A3
:102F80001A46D3F804C052F8184FB3428E68D1F8ED
:102F900000E025F0200545EA06150FD1CE68D1E9FD
:102FA00005986FF0400725F0C00507EA061635437F
:102FB0002CF4406748EA090647EA860C24F4E64404
:102FC00044EA0E27C3F804C09F614F6809699F63F4
:102FD0001D629F6947F400679F619F6927F48067BE
:102FE0009F6109021368194311600021BDE8F04395
:102FF000002280F83C200846704700BF01210022D3
:1030000080F83C2008467047002804BF0120704724
:1030100010B590F83D1031B9002180F83C100446FD
:1030200000F070F82046022180F83D10016840F25F
:10303000FF740B68C4F2000442F6004CA142C4F2D3
:10304000010C15DCB1F1804F1AD040F20042C4F2FD
:103050000002914214D0A14218DCB1F1804F1DD082
:1030600040F20042C4F20002914217D01AE000BFC1
:10307000614505D040F60002C4F200029142EAD157
:10308000826823F070031343A142E6DD614505D059
:1030900040F60002C4F20002914203D1026923F417
:1030A00040731343846923F08002D0F804E0C368BE
:1030B000224361450A60CB62C1F828E002D142692F
:1030C000CCF8302001224A610B69DB0703D00B6981
:1030D00023F001030B6180F8462080F83E2080F841
:1030E0003F2080F8402080F8412080F8422080F87E
:1030F000432080F8442080F8452080F83D200020BF
:1031000010BD00007047000070470000C1B10429E5
:1031100008D0082914BF41224022825C012A05D030
:1031200016E000BF3F22825C012A11D10222082949
:1031300010D0042914BF80F8412080F83F200BE014
:1031400090F83E20012A03D1022280F83E2003E0BD
:103150000120704780F84020006801F01F01012223
:10316000036A8A4023EA02010162036A42F644418B
:10317000C4F201011A43A1F14403984202620FD044
:1031800040F2FF71C4F20001884213DCB0F1804FBD
:103190001CD040F20041C4F20001884216D01CE06D
:1031A0000A6842F400420A6040F2FF71C4F2000172
:1031B0008842EBDD42F60041C4F20101884205D0AD
:1031C00040F60001C4F20001884206D1816801F096
:1031D0000701062904BF00207047016841F0010182
:1031E0000160002070470000006840F20041C4F216
:1031F0000001884218BF7047B0B540F2BC04C2F26B
:10320000000440F230152178C2F200052868012937
:1032100002D1616804E000BF0121217001466060B5
:10322000FCF7D2FF40F6DB71C4F2C90100F0ECFDFF
:103230002968616048F20001C4F26841FCF7CAFFE6
:1032400040F2D824C2F20004216845F62942C3F6B0
:103250008F5201F015F92060BDE8B04070470000C2
:1032600070470000002804BF0120704710B50446D5
:1032700090F8410028B9002084F84000204600F072
:1032800063F8242084F841002068D4E90212C3685E
:1032900023F40053C360036923F440531A430261CB
:1032A000D4E904231143C268194341F20C639A43E1
:1032B0001143C1604169A26921F44071114343F691
:1032C0000002C4F201029042416103D0FEF77EFE8B
:1032D00002E000BFFEF78EFED4E900231921484327
:1032E0009900B0FBF1F048F21F5CC5F2EB1CA0FBAB
:1032F0000C314FF69C734909C0F6FF7301FB0300C4
:10330000322303EB0010A0FB0C03F02000EA531063
:1033100000EB0110C3F343110844906010692021B1
:1033200020F490401061506920F02A005061D0686C
:1033300040F40050D0600020606484F8411084F8AC
:103340004210606310BD000070B586B040F6000406
:10335000C4F201040068A4F54441002688420596A1
:10336000CDE90366029601D006B070BD41F21800A7
:10337000C4F20200416802AD41F40031416041688D
:1033800001F4003101910199016841F004010160EB
:103390000068294600F00400019001980420029082
:1033A00002200390032005902046FEF769FA0820CA
:1033B000CDE90206204629460496FEF761FA06B0DA
:1033C00070BD00002DE9F04381B0044690F8410043
:1033D000202809D100294FF0010018BF002A07D189
:1033E00001B0BDE8F08300BF022001B0BDE8F0836A
:1033F0000020606421201D460E4684F841001746D7
:10340000FEF74CFBA784E784A1688146B1F5805F95
:1034100002D1206900285DD037460020E28C216867
:10342000002A5DD06A1C24D0002D4AD0804600BFFF
:103430000868000608D4FEF731FBA0EB0900A8429B
:103440007AD82168C868F3E717B117F8010B04E0D0
:1034500038F8020B00276FF35F204860E08C0138DA
:10346000E084E08C0028E3D13AE000BF0A6812064D
:1034700009D40A68120606D40A6812065CBF0A68F4
:103480005FEA0262F2D51FB117F8012B05E000BF19
:1034900030F8022B00276FF35F224A60E28C013A7A
:1034A000E284E28C002AE4D11AE000BF30F8022B5B
:1034B00000276FF35F224A60E28C013AE284E28CDB
:1034C00072B10A68120635D5002FEFD017F8012B1C
:1034D000F1E700BF00273046E28C2168002AA1D125
:1034E000086840061ED42DB3681C14D10868400635
:1034F0002AD40868400627D40868400624D40868FF
:1035000040064FF00000F1D50DE000BF2068C16813
:103510000068400618D4FEF7C1FAA0EB0900A842E3
:10352000F4D909E00020202184F8411001B0BDE861
:10353000F08300BFFEF7B2FA0320202184F8411087
:1035400001B0BDE8F08300BF0020202184F84110C5
:1035500001B0BDE8F0830000FEE7000080B588B050
:1035600040F2100042F2004C0021C2F20000C4F20E
:10357000010C01234FF46022059103730175C261B0
:10358000C0E900C181600361FDF7EEFE002818BFAD
:10359000FDF7E0FA4FF4A020079040F21000C2F2CD
:1035A000000007A9FDF738FE002818BFFDF7D2FA82
:1035B0000020009001210690ADF81400039040F225
:1035C00010000491CDE90111C2F200006946FDF737
:1035D00055FB002818BFFDF7BDFA08B080BD0000FC
:1035E00070B588B040F21005C2F2000542F6000145
:1035F000C4F201012846002440F8301F01264FF490
:103600006021CDE9064406730475C161C0E9014437
:103610000661FDF7A9FE002818BFFDF79BFA05F12A
:10362000300001A9CDE9016605960396ADF8184072
:103630000494FDF723FB002818BFFDF78BFA08B0B0
:1036400070BD000080B582B041F21400C4F20200E7
:103650000168002241F0010101600068002100F0D2
:103660000100019001980C20FEF798FA0C20FEF75B
:1036700083FA0D2000210022FEF790FA0D2002B0FF
:10368000BDE88040FEF778BA2DE9F04786B0002704
:1036900041F21800CDE90477CDE90277C4F20200C7
:1036A000016840F6004441F0200101600168C4F265
:1036B000010401F02001019101990168A4F58065E0
:1036C00041F0040101600168002201F00401019150
:1036D00001990168102641F008010160006810217D
:1036E00000F00800019001982846FEF7D1F9204625
:1036F0004FF4004100224FF40048FEF7C9F902964A
:1037000002AE4FF001094FF0020A28463146CDE9DA
:103710000397CDF814A0FEF7B3F84FF48050029051
:103720000020C1F21100CDE9030720463146FEF723
:10373000A7F820463146CDE90289CDE9047AFEF7A3
:103740009FF8282003210022FEF728FA2820FEF700
:1037500013FA06B0BDE8F08710B540F2781043F2D6
:103760000001C2F20000C4F201014FF48272002392
:103770004FF0010C4FF4007E302480E80E000A2147
:10378000C0E90333C0E905CEC461C0E90833C0E92C
:103790000A31FEF77BFE002808BF10BDBDE81040CF
:1037A000FDF7D8B970B59CB042F6004540F2D01094
:1037B000C4F201050021C2F2000060224FF46163EF
:1037C000042680241691CDE914111191CDE90F1131
:1037D000CDE90D11CDE90B11CDE90911CDE90711A5
:1037E000CDE90511CDE90311CDE90111C0E9005181
:1037F000C0E90223C0E904168461FFF79BF80028A2
:1038000018BFFDF7A7F94FF48050139040F2D01085
:10381000C2F2000013A9FFF779F9002818BFFDF7DD
:1038200099F940F2D010C2F20000FFF7EDFB00283A
:1038300018BFFDF78FF92020109040F2D01000241F
:10384000C2F2000010A91194FFF734F8002818BF45
:10385000FDF780F96020CDE9090440F2D010C2F2F2
:10386000000009A90022CDE90B44CDE90D440F94D5
:10387000FFF7C8FA002818BFFDF76CF940F2D01026
:10388000C2F2000009A90422FFF7BCFA002818BF01
:10389000FDF760F940F2D010C2F2000009A9082239
:1038A000FFF7B0FA002818BFFDF754F940F2D01422
:1038B00000264FF48070C2F20004CDE9030601A98E
:1038C0002046CDE90166CDE905660896FEF7CCFFF6
:1038D000002818BFFDF73EF92068CDE91A66A84216
:1038E0001996189602D01CB070BD00BF41F21800A6
:1038F000C4F20200016841F004010160006818A9E7
:1039000000F00400179017984FF4E0601890022020
:1039100019901B90A5F51050FDF7B2FF1CB070BDBB
:1039200080B586B040F2182040F200420021C2F279
:103930000000C4F20002472340F2334C0591CDE968
:103940000311CDE90011C0E90023C0E9021C0161A7
:103950008161FEF7EFFF002818BFFDF7FBF84FF479
:103960008050029040F21820C2F2000002A9FFF736
:10397000CDF8002818BFFDF7EDF840F21820C2F28C
:1039800000006946FEF796FF002818BFFDF7E2F831
:1039900006B080BD80B540F2602044F20041C2F222
:1039A0000000C4F2000100234FF00C0C4FF4E13290
:1039B00080E80E00C0E90333C0E905C3C361FFF727
:1039C00051FC002808BF80BDBDE88040FDF7C2B8AB
:1039D000FEE70000FEE7000070470000406A016853
:1039E0004A6822F003024A60416D41F010014165CE
:1039F000012180F85110FEF711BD0000406AFEF76A
:103A000011BE0000406AFEF713BF0000B0B582B0DF
:103A1000446A0546FEF742F829680968890645D4D4
:103A200084462068A168426822F02002426049B9B9
:103A30006268B2F5827F05D1416821F003014160DF
:103A400018E000BF426822F0010242606268B2F5ED
:103A5000827F0FD1B1F5004F02D0B1F5806F09D14F
:103A60000268B1F5806F22F04002026002D1204668
:103A7000012101E02046802100226423CDF800C00E
:103A800000F05CF828B1606D40F0200060652020F7
:103A900060650020E087012084F85100606D28B146
:103AA000204602B0BDE8B040FEF7B8BC204602B0E8
:103AB000BDE8B040FEF7B4BDB0B582B0446A05467B
:103AC000FDF7ECFF29680968890631D405462068AE
:103AD00001224168642321F0200141602046022137
:103AE000009500F02BF838B920468021002264238D
:103AF000009500F023F838B1606D40F0200060655B
:103B0000606D40F0200060652068416821F003018D
:103B100041600020E086E087012084F85100606D5C
:103B200030B1204602B0BDE8B040FEF777BC00BF20
:103B3000204602B0BDE8B040FEF710BE2DE9F043CC
:103B400081B0089C984615460E468146FDF7A6FFB3
:103B5000201A00EB0804FDF7A1FF40F20C01C2F2AD
:103B600000010968C1F3CB3161430091D9F800101D
:103B70008A683240921BB2FA82F25209AA423DD0C0
:103B8000074618F1010031D0FDF788FFC01BA042A5
:103B900038D2009800990028A1F101010091D9F8CC
:103BA0000010896808BF044601EA0600801BB0FACD
:103BB00080F04009A842E7D120E000BF886830408B
:103BC000801BB0FA80F04009A84217D088683040C6
:103BD000801BB0FA80F04009A8420FD088683040BE
:103BE000801BB0FA80F04009A84207D088683040B6
:103BF000801BB0FA80F04009A842DFD1002001B05C
:103C0000BDE8F083D9E900014268B1F5827F22F076
:103C1000E00242600BD1D9F80810B1F5004F02D094
:103C2000B1F5806F03D1016821F040010160D9F83E
:103C30002810B1F5005F07D1016821F4005101603F
:103C4000016841F400510160012089F85100002011
:103C500089F85000032001B0BDE8F08370470000F0
:103C6000FDF722BF7047000040F21820C2F20000AA
:103C7000FFF71EB8FEE7F0B581B04FF68311C3F62B
:103C80002261FCF7A7FA4FF07A51FCF74BFA044691
:103C9000FCF70AFD0546204600210027FCF7A0FCA2
:103CA000002818BF013D2846FCF7DFFC01462046EE
:103CB000FCF78AFA4FF08841FCF78CFA0446FCF7CF
:103CC000F3FC054620464FF04441FCF72BFA06462C
:103CD000B7EB552F14BF002526462846FCF7CEFC2F
:103CE00001463046FCF770FA45F2A011C0F600011B
:103CF00001EB8502064651F8254055684FF07E508D
:103D00003146FCF761FA2146FCF764FA0446304676
:103D10002946FCF75FFA01462046FCF703FA01B09A
:103D2000F0BDF0B581B00D46D0E906610446076AE2
:103D30003046FCF7F7F93946FCF7F4F920603846CD
:103D40003946FCF7EFF901463046FCF7EBF980F015
:103D500000406060A7601DB10020C4E903006061FD
:103D600001B0F0BDF0B581B04FF68311C3F622610A
:103D7000FCF730FA0446FCF797FC05462046002184
:103D80000027FCF72DFC002818BF013D2846FCF752
:103D90006CFC01462046FCF717FA4FF08841FCF70F
:103DA00019FA0446FCF780FC054620464FF04441D2
:103DB000FCF7B8F90646B7EB552F14BF0025264689
:103DC0002846FCF75BFC01463046FCF7FDF945F25E
:103DD000A011C0F6000101EB8502064651F825400E
:103DE00055684FF07E503146FCF7EEF92146FCF75E
:103DF000F1F9044630462946FCF7ECF90146204625
:103E0000FCF790F901B0F0BDB0B50D460446084688
:103E10004FF07C51FCF7DEF92146FCF7EFFB28B9A7
:103E200020462946FCF7D0F90DE000BF28464FF0A8
:103E30003F41FCF7CFF92146FCF7C4FB20B92046EF
:103E40002946FCF76FF904462046B0BD2DE9F04F36
:103E500081B00E464FF07E51154604464FF07E5815
:103E6000FCF7BEFB0027CBF68077002808BF44464E
:103E700020463946FCF7D0FB002830464FF07E51F3
:103E800008BF3C46FCF7ACFB002808BF464630465E
:103E90003946FCF7C1FB0028284608BF3E46FFF71D
:103EA00061FF81462846FFF7E6FE05464846314653
:103EB000FCF790F9074620462946FCF78BF939466E
:103EC000FCF782F9804630462946FCF783F905461F
:103ED00020464946FCF77EF92946FCF723F983463C
:103EE00020F00040FCF70DFC814628F000408A4697
:103EF000FCF707FC44F6AA424BF27A63CEF658026E
:103F0000C3F6FB73FCF77DFA05460C4640460021DC
:103F1000FCF782FB0746002858464FF0000118BF07
:103F20000127FCF779FB0028284621464A465346DC
:103F300018BF0437FCF77EFB002818BF02375BA0D0
:103F400050F827703846FCF790FB40F69221C3F6F4
:103F50008671FCF73FF90446FFF704FF054620464B
:103F6000FFF789FE01465846FCF734F90646284615
:103F70004146FCF72FF93146FCF726F940F692212D
:103F80008146CBF686712046FCF7CCF80446FFF755
:103F900072FE05462046FFF7E5FE4146FCF71AF99A
:103FA000044658462946FCF715F92146FCF70CF95A
:103FB00005464FF07E504946FCF706F92946FCF7C6
:103FC00003F945F22C16834607EB4700C0F60006BE
:103FD00006EB800151E9030A51F8041C0091FCF73B
:103FE00044FB4AF6AB21C2F6AA2187FB0112044624
:103FF00002EBD27000EB4000A7EB400000EB400169
:1040000056F8210006EB8108FCF72FFB01462846F5
:10401000FCF7E0F8074648462146FCF7DBF839464E
:10402000FCF780F8044658464FF07C51FCF7D2F874
:1040300021460746FCF776F883465046FCF715FB09
:104040000646D8E9010AFCF710FB01462846FCF7B2
:10405000C1F8044648463146FCF7BCF82146FCF757
:1040600061F801463846FCF75DF806460098FCF713
:10407000FCFA04465046FCF7F8FA01462846FCF7DD
:10408000A9F8054648462146FCF7A4F82946FCF75E
:1040900049F801463846FCF745F80246584631468D
:1040A00001B0BDE8F04F00F06FBB00BF040000009E
:1040B00006000000050000000500000003000000ED
:1040C00001000000020000000200000010B582B0F4
:1040D00004468DF8070040F26020C2F200000DF1A6
:1040E000070101224FF0FF33FFF76CF9204602B0C1
:1040F00010BD00002DE9F04740F2D421C2F20001CA
:10410000D1F800804146FCF75FF84CF6E431C4F288
:1041100016110546FCF756FA20B94CF6E431CCF2FC
:1041200096110BE04CF6E431CCF216112846FCF760
:1041300065FA38B94CF6E431C4F296112846FBF71B
:10414000F1FF054640F2C406C2F20006D6E9029A23
:10415000D6E900705146FCF73DF80446384629463A
:10416000FCF738F82146FBF7DDFF31690446484685
:10417000FCF730F82146FBF7D5FF7169FBF7D2FF5A
:10418000044640F20030C2F2000001684046C6E931
:10419000035A7461FCF718F80021C4F2E001FCF73F
:1041A00019F8024600202146BDE8F047FFF74EBE51
:1041B0002DE9F04F81B08A4640F2D421C2F20001CD
:1041C00009689046FCF700F84CF6E431C4F2161189
:1041D0000746FCF7F7F928B94CF6E431CCF2961112
:1041E0000CE000BF4CF6E431CCF216113846FCF777
:1041F00005FA38B94CF6E431C4F296113846FBF7AB
:1042000091FF074640F2C406C2F20006D6E9029BBF
:10421000D6E900405946FBF7DDFF05462046394602
:10422000FBF7D8FF2946FBF77DFF31690446484676
:10423000FBF7D0FF2146FBF775FF7169FBF772FFB3
:1042400020F000450446706128465146C6E9037BCC
:10425000FCF7C6F9002820464FF0000118BFAA4617
:10426000FCF7DAF9002840F2D820C2F20000016819
:1042700008BF8AF0004A5046FBF7A6FFD6E909417D
:10428000D6F83090054608464946FBF7A3FF074697
:1042900020462946FBF79EFF3946FBF743FFF26AAB
:1042A000716B04461046FBF795FF2146FBF73AFF7A
:1042B000B16BFBF737FFC6E90C5920F00045044607
:1042C000B06328464146FCF78BF9002820464FF0A2
:1042D000000118BFA846FCF79FF9002808BF88F026
:1042E00000480020414601B0BDE8F04F00F048B85A
:1042F0002DE9F04381B040F2D821C2F200010968F3
:10430000FBF762FF40F2C404C2F20004D4E9096181
:10431000D4E90B89054608464946FBF75BFF07468B
:1043200030462946FBF756FF3946FBF7FBFE616B2B
:1043300006464046FBF74EFF3146FBF7F3FEA16B06
:10434000FBF7F0FE064640F2D42040F20031C2F204
:104350000000C2F2000100680968C4E90C59A663B4
:10436000FBF732FF0021C4F2E001FBF733FF024606
:104370000020314601B0BDE8F043FFF767BD000003
:104380002DE9F047884640F2C421C2F200010968D5
:10439000044608464FF07C51FBF71CFF01462046BF
:1043A000FBF712FF40F2C406C2F20006D6E9124142
:1043B000D6E9149A074608465146FBF70BFF054617
:1043C00020463946FBF706FF2946FBF7ABFEB16DE9
:1043D00004464846FBF7FEFE2146FBF7A3FEF16DBF
:1043E000FBF7A0FE814640F2C820C2F20000006840
:1043F0004FF07C51C6E9157AC6F85C90FBF7EAFEEF
:1044000001464046FBF7E0FE40F2DC25C2F2000523
:10441000D5E90071D5E9028A064608465146FBF700
:10442000D9FE044638463146FBF7D4FE2146FBF759
:1044300079FE296904464046FBF7CCFE2146FBF78E
:1044400071FE6969FBF76EFE044640F2D42040F22B
:104450000031C2F20000C2F2000100680968C5E93B
:10446000036A6C61FBF7B0FE0021C4F2E001FBF7C8
:10447000B1FE024648462146BDE8F047FFF7E6BCDC
:104480002DE9F0410E4611461746FBF7A3FEFCF757
:1044900038F9804638460D46FCF733F90B460021C3
:1044A0000246C3F6F0710020FBF7A5FF0746304631
:1044B0000C46FCF726F902460B4638462146FBF728
:1044C000A0FF42462B46FBF7F5FEFCF72DF9BDE8B1
:1044D000F08100009CB0FDF7F5FA00240120CDE941
:1044E0001744CDE91544129016904FF4E0104FF4A4
:1044F000803102251B9012A80C94CDE90A44CDE925
:104500001314CDE91951FDF789FD28B1EFF310809F
:1045100072B600BFFEE700BF0F20CDE90D054FF4D6
:104520008060CDE910040DA802210F94FDF770FC06
:1045300020B1EFF3108072B6FEE700BF02200990B1
:104540004FF400400B9009A8FDF7E0FB20B1EFF31A
:10455000108072B6FEE700BF40F60044C4F20104CA
:10456000FFF792F8FFF76EF8FFF7F6F8FFF712FA89
:10457000FFF718F9FFF7D4F9FEF7F0FFFFF730F86F
:104580004BF2177041F26F220025C3F6D1104FF0A5
:104590007E51C3F68322CDE90025CDE902100690B5
:1045A000002000224DF20A73CDE90451C4F26000EC
:1045B000C4F2E002C3F6A3430021079500F0AAF875
:1045C000A4F5806010210022FDF762FA40F271012B
:1045D00040F27810C2F20001C2F200000A46032342
:1045E0004FF00309FEF720F80A20FDF727F940F203
:1045F000D018C2F2000840460021FEF787FD404671
:104600000421FEF783FD40460821FEF77FFD40F2BE
:104610001820C2F20000FEF741FA40F21006C2F282
:1046200000063046FCF79CFA40F24007C2F2000751
:104630003846FCF795FA3046FCF792FD3846FCF711
:1046400037FDEFF3108072B6D8F80060F06AFCF71F
:1046500015F84FF07C51FBF7BDFDFCF73EF8706399
:10466000F06AB563F06A4FF4C870F56362B6FDF79F
:10467000E5F840F2D426C2F20006306840F200317C
:10468000C2F200010860EFF3108072B6D8F80000A3
:10469000C16A4563C16A8563C16AC5630A2062B69F
:1046A000FDF7CCF840F2A8274CF6CD40C2F2000747
:1046B000C3F64C60C7E903504FF47A7087F8009056
:1046C000FDF7BCF840F6DB70C3F6C97078600120D6
:1046D0000EA538703068FCF714F8024628460B46E1
:1046E00000F0AAF86420FDF7A9F820464FF4004135
:1046F0000122FDF7CDF96420FDF7A0F820464FF424
:1047000000410022FDF7C4F9E4E700BF252E33661F
:104710000A0000002DE9F04F81B040F2C40CDDE941
:104720000E6AC2F2000C0CF1180BDDE9108EDDE907
:104730000C75DDE90A498BE807000CF13C00CCF868
:10474000686040F2DC2680E81802C2F2000660468B
:1047500000210CF1240B0CF14809CCE91875C6E9CD
:1047600006A8C6F820E0FFF7DCFA58460021FFF75C
:10477000D8FA48460021FFF7D4FA3046002101B0AC
:10478000BDE8F04FFFF7CDBA2DE9F04792460C4651
:104790000646FBF7B6FF4CF6CD484CF6CC49CCF6B6
:1047A000CC48C3F6EC7942464B46FBF743FF46F252
:1047B000666500282046C3F6667508BF2E46FBF7DF
:1047C000A0FF42464B46FBF735FF0028504608BF86
:1047D0002C46FBF796FF42464B46FBF72BFFEFF3C9
:1047E000108172B640F2D011C2F200010F680028A9
:1047F000F86A18BF5546FBF741FF01463046FBF704
:10480000E9FCFBF76AFF7863F86AFBF737FF0146BC
:104810002046FBF7DFFCFBF760FFB863F86AFBF7A5
:104820002DFF01462846FBF7D5FCFBF756FFF86342
:1048300062B6BDE8F08700000FB4054B10B503A9C0
:10484000044A029800F0DAF810BC5DF814FB00008E
:10485000CD4000080000002002E008C8121F08C177
:10486000002AFAD170477047002001E001C1121FF1
:10487000002AFBD1704700002DE9FF5F82B00021C4
:10488000DDE90430020DDDF840B0034318D044F6F2
:104890001050A2F2FF3242431514119801281FD084
:1048A000A5EB0B00401C5FEA000A4FF000064E4FDC
:1048B000DFF83891B046504615D5CAF1000413E030
:1048C000119801244AA3012801D16FEA0B01029833
:1048D000119AC0E90031C0E9024206B0BDE8F09F7C
:1048E000CBF10000DFE704460021404A491842EBC3
:1048F0000450CDE9001012E0E00707D032463B46F5
:1049000040464946FBF77DFD8046894632463B4698
:1049100010461946FBF775FD06460F466410002C3D
:10492000EAD1DDE90401DDE90023BAF1000F06DA7E
:10493000FBF767FD42464B46FBF763FD05E0FBF7DF
:10494000D2FD42464B46FBF7CEFD04460E46002202
:10495000284BFCF719F803D84FF0FF30014607E069
:104960000022254B20463146FBF7A4FCFBF7F4FF61
:10497000102409E0002C0ADB0A220023FBF706FFC3
:10498000039B30321A55641E50EA0102F2D1641CB6
:10499000039AC4F111031444119A012A03D001228D
:1049A00008430DD10AE0084304D000204FF0110B5A
:1049B000119072E7A3EB0B056D1E0DE05B4504DD66
:1049C0004FF0000205F1010504E003DA4FF00002A8
:1049D000A5F10105002AECD002981199C0E9023135
:1049E000C0E9004579E70000000014400000F03FF6
:1049F000300000000000F0430000E03F2DE9FF4FD1
:104A000095B09B468946064600250FE2252877D1BA
:104A100000242746F84A0121059400E0044316F8D3
:104A2000013F203B01FA03F01042F7D130782A28E9
:104A300011D06FF02F033078A0F13002092A16D878
:104A4000059A44F0020402EB820203EB4202104496
:104A5000761C0590EFE759F8042B0592002A03DA3B
:104A6000504244F40054059044F00204761C30781F
:104A70002E2816D116F8010F44F004042A280DD070
:104A80006FF02F023078A0F13003092B09D807EB23
:104A9000870302EB4303C718761CF3E759F8047B3E
:104AA000761C30786C280FD006DC4C2817D068288C
:104AB0000DD06A2814D104E0742810D07A280FD1C0
:104AC0000DE044F400140AE044F4801401E044F4DE
:104AD00040147278824202D104F58014761C761C50
:104AE000307866280BD013DC582877D009DC0028F2
:104AF00075D04528F6D04628F4D047281AD19DE134
:104B000018E0632835D0642879D0652812D195E162
:104B1000702873D008DC6728F1D069286FD06E2820
:104B20000DD06F2806D1B5E073282CD0752875D02C
:104B3000782874D05A46179990476D1C75E1C4F3D4
:104B40000250022809D003280DD0D9F800100428FB
:104B50000DD00D6009F1040967E1D9F80010EA17DA
:104B6000C1E90052F6E7D9F800100D80F2E70D70A8
:104B7000F0E719F8041B8DF8001000208DF80100F3
:104B8000EA46012003E059F804AB4FF0FF3061071B
:104B90004FF0000102D40DE008F101018846B9424E
:104BA0000FDA8045F8DB1AF808100029F4D108E084
:104BB00008F1010188468142FADB1AF80810002941
:104BC000F6D105985B46A0EB080721463846179AB0
:104BD00000F094FA284400EB080507E04DE029E1D5
:104BE0000DE01AF8010B5A4617999047B8F10108E1
:104BF000F7D25B4621463846179A13E142E00A2273
:104C00000092C4F302524FF0000A022A08D059F869
:104C100004CB032A4FEAEC710AD00DE029E02AE028
:104C200009F1070121F00702F2E802C1914609E00B
:104C30000FFA8CFC4FEAEC71042A03D14FFA8CFC7A
:104C40004FEAEC71002907DA0A460021DCF1000C7A
:104C500061EB02012D2202E0220504D52B228DF802
:104C60000420012203E0E20701D02022F7E790466A
:104C700059E00A2102E010220DE010214FF0000A55
:104C800000910BE010224FF0000A44F004040827C2
:104C9000009203E008224FF0000A0092C4F302528F
:104CA000022A05D059F804CB0021032A08D009E0D4
:104CB00009F1070121F00702F2E802C1914605E07F
:104CC0001FFA8CFC042A01D10CF0FF0C4FF00008F5
:104CD000220728D5702806D0009B83F0100353EAE2
:104CE0000A0305D00EE040228DF80420012208E0DE
:104CF0005CEA010206D030228DF804208DF8050010
:104D000002229046009B83F0080353EA0A030AD16B
:104D10005CEA010201D1620705D530228DF804203A
:104D20004FF001087F1E582804D034A003900EA82D
:104D300002900DE036A0F9E753466046009AFBF773
:104D400025FD84460398825C0298401E0290027002
:104D50005CEA0100F0D1029806A9081A00F1200AC5
:104D6000600702D524F4803400E00127574502DDB6
:104D7000A7EB0A0000E0002000EB0A010090059874
:104D80004144401A0590E00306D45B462146179A39
:104D9000059800F0B3F90544002706E001A85A463B
:104DA000C05D179990476D1C7F1C4745F6DBE003FB
:104DB0000CD55B462146179A059800F09FF90544EB
:104DC00004E030205A46179990476D1C0099481E00
:104DD00000900029F5DC08E0029802995A46007814
:104DE000491C0291179990476D1CBAF10001AAF174
:104DF000010AF1DC65E1000009280100303132339D
:104E00003435363738396162636465660000000006
:104E100030313233343536373839414243444546F0
:104E20000000000000F058F90544761C3078002896
:104E30007FF4ECAD19B02846BDE8F08F620700D4CE
:104E4000062709F1070222F0070CFCE80223E146DD
:104E500003F000485FEA080C02D00FF2702C0DE05E
:104E60005FEA045C02D50FF2682C07E05FEAC47CBD
:104E700002D00FF2602C01E0AFF2700C4FF0FF385F
:104E800023F00043CDF850C065280CD006DC45283F
:104E900009D046281DD047283DD13DE0662818D0CE
:104EA00067287ED138E00021112F01DB112000E0BE
:104EB000781CCDE9000106A90EA8FFF7DDFCDDE9AD
:104EC0000F010E9A03910021009207F1010A04914B
:104ED0004DE04FF000400097CDE9011006A90EA863
:104EE000FFF7CAFCDDE90F0203920E9B1199002225
:104EF000DDF80CA00093049211B9791C00EB010AB3
:104F0000B7EB0A0004D4C0F1FF3007F1010A0490A6
:104F1000AAEB0700019044E0012F00DA01270021ED
:104F2000112F01DD112000E03846CDE9000106A96E
:104F30000EA8FFF7A1FCDDE90F010E9A03910021F5
:104F400004910092BA4621070CD40399514500DA26
:104F50008A46BAF1010F05DD009AAAF10101515C00
:104F6000302908D0B84202DA10F1040F06DA012124
:104F7000CDE9011015E0AAF10101E9E7002805DCFF
:104F8000049901440491AAEB000102E0411C51453F
:104F900000DD8A460499401A401C01904FF0004001
:104FA0000290200704D40198504501DBCDF804801D
:104FB00000208DF84F0002980DF14F07B0F1004F1F
:104FC00025D02B200E9002984FF0020800280CDA12
:104FD000404202902D200E9007E00A210298FBF734
:104FE000BFFB3031029007F8011DB8F10001A8F1B4
:104FF0000108F2DC02980028EFD1791E0E980870A3
:10500000307800F0200040F0450007F8020D12A8AB
:10501000C01B00F107081498007800B1012000EBD4
:105020000A01019801EBE07105984144401A401EC5
:105030000590E00306D45B462146179A059800F0D8
:105040005DF805441498007818B15A4617999047AE
:105050006D1CE00324D55B462146179A059800F0A5
:105060004DF805441CE00498002807DBDDE9030146
:10507000884203DD0098405C179901E017993020C1
:105080005A469047049805F10105401C0490019888
:10509000401E019004D12E205A46179990476D1C4E
:1050A000BAF10001AAF1010ADDDC05E017F8010BF5
:1050B0005A46179990476D1CB8F10001A8F10108F4
:1050C000F4DC5B462146179A0598ABE62D000000FC
:1050D0002B000000200000002DE9F04104460025CF
:1050E0001E461746880404D405E039462020B04700
:1050F0006D1C641EF9D52846BDE8F0812DE9F0410C
:10510000044600251E469046C80301D5302700E01E
:105110002027880404D505E041463846B0476D1C79
:10512000641EF9D52846BDE8F081000001000000AA
:10513000000000000000000001000000010000006D
:10514000000000000000000001000000000000005E
:10515000000000000100000001000000000000004D
:10516000000000000100000001000000000000003D
:105170000100000000000000000000000102030424
:1051800006070809000000000102030401020203EF
:105190000405060708090A0B0C0D0E0F101000007D
:1051A00000000000920E493CB10AC93C2BC3163DD9
:1051B0002EFB483D752B7B3D04A9963D80B6AF3D47
:1051C00036BDC83D2FBCE13D73B2FA3D87CF093EE5
:1051D0008340163EB5AB223EA2102F3ECF6E3B3E23
:1051E000C2C5473E0115543E135C603E7F9A6C3E3B
:1051F000CCCF783EC07D823E938E883E229A8E3EF2
:1052000032A0943E86A09A3EE59AA03E128FA63E1A
:10521000D47CAC3EEF63B23E2A44B83E491DBE3E4C
:1052200015EFC33E53B9C93ECA7BCF3E4136D53E8A
:1052300080E8DA3E4F92E03E7533E63EBBCBEB3E74
:10524000EA5AF13ECBE0F63E275DFC3EE4E7003F44
:105250003D9C033F824B063F9BF5083F6B9A0B3FFB
:10526000DA390E3FCDD3103F2A68133FD9F6153FE8
:10527000C07F183FC6021B3FD17F1D3FCBF61F3FAB
:105280009967223F25D2243F5636273F1594293F60
:105290004AEB2B3FDE3B2E3FBB85303FC9C8323F38
:1052A000F304353F233A373F4268393F3B8F3B3F5A
:1052B000F9AE3D3F67C73F3F70D8413F01E2433FF2
:1052C00003E4453F65DE473F12D1493FF8BB4B3F02
:1052D000029F4D3F207A4F3F3D4D513F4918533F6C
:1052E00031DB543FE595563F5348583F6AF2593FEA
:1052F0001A945B3F532D5D3F05BE5E3F2146603FE4
:1053000097C5613F5A3C633F59AA643F880F663F87
:10531000D86B673F3CBF683FA7096A3F0C4B6B3FA8
:105320005E836C3F93B26D3F9ED86E3F73F56F3FC7
:105330000809713F5213723F4714733FDD0B743FEE
:105340000BFA743FC6DE753F07BA763FC58B773FD1
:10535000F853783F9812793F9DC7793F02737A3F9F
:10536000BE147B3FCDAC7B3F283B7C3FC9BF7C3F1D
:10537000AC3A7D3FCCAB7D3F23137E3FB0707E3F88
:105380006DC47E3F580E7F3F6D4E7F3FAB847F3FA5
:105390000FB17F3F97D37F3F43EC7F3F11FB7F3FB0
:1053A0000000803F11FB7F3F43EC7F3F97D37F3F5F
:1053B0000FB17F3FAB847F3F6D4E7F3F580E7F3FE5
:1053C0006DC47E3FB0707E3F23137E3FCCAB7D3FEC
:1053D000AC3A7D3FC9BF7C3F283B7C3FCDAC7B3F97
:1053E000BE147B3F02737A3F9DC7793F9812793F85
:1053F000F853783FC58B773F07BA763FC6DE753FD7
:105400000BFA743FDD0B743F4714733F5213723F26
:105410000809713F73F56F3F9ED86E3F93B26D3FA1
:105420005E836C3F0C4B6B3FA7096A3F3CBF683FF4
:10543000D86B673F880F663F59AA643F5A3C633F69
:1054400097C5613F2146603F05BE5E3F532D5D3FDE
:105450001A945B3F6AF2593F5348583FE595563FCF
:1054600031DB543F4918533F3D4D513F207A4F3F68
:10547000029F4D3FF8BB4B3F12D1493F65DE473F8E
:1054800003E4453F01E2433F70D8413F67C73F3FD8
:10549000F9AE3D3F3B8F3B3F4268393F233A373FB0
:1054A000F304353FC9C8323FBB85303FDE3B2E3F5A
:1054B0004AEB2B3F1594293F5636273F25D2243FF0
:1054C0009967223FCBF61F3FD17F1D3FC6021B3F8E
:1054D000C07F183FD9F6153F2A68133FCDD3103F40
:1054E000DA390E3F6B9A0B3F9BF5083F824B063F24
:1054F0003D9C033FE4E7003F275DFC3ECBE0F63EEA
:10550000EA5AF13EBBCBEB3E7533E63E4F92E03EAE
:1055100080E8DA3E4136D53ECA7BCF3E53B9C93E1C
:1055200015EFC33E491DBE3E2A44B83EEF63B23E6E
:10553000D47CAC3E128FA63EE59AA03E86A09A3E51
:1055400032A0943E229A8E3E938E883EC07D823E4B
:10555000CCCF783E7F9A6C3E135C603E0115543E82
:10556000C2C5473ECF6E3B3EA2102F3EB5AB223E9A
:105570008340163E87CF093E73B2FA3D2FBCE13D12
:1055800036BDC83D80B6AF3D04A9963D752B7B3D29
:105590002EFB483D2BC3163DB10AC93C920E493C37
:1055A00000000000920E49BCB10AC9BC2BC316BD55
:1055B0002EFB48BD752B7BBD04A996BD80B6AFBD43
:1055C00036BDC8BD2FBCE1BD73B2FABD87CF09BEE1
:1055D000834016BEB5AB22BEA2102FBECF6E3BBE1F
:1055E000C2C547BE011554BE135C60BE7F9A6CBE37
:1055F000CCCF78BEC07D82BE938E88BE229A8EBEEE
:1056000032A094BE86A09ABEE59AA0BE128FA6BE16
:10561000D47CACBEEF63B2BE2A44B8BE491DBEBE48
:1056200015EFC3BE53B9C9BECA7BCFBE4136D5BE86
:1056300080E8DABE4F92E0BE7533E6BEBBCBEBBE70
:10564000EA5AF1BECBE0F6BE275DFCBEE4E700BF40
:105650003D9C03BF824B06BF9BF508BF6B9A0BBFF7
:10566000DA390EBFCDD310BF2A6813BFD9F615BFE4
:10567000C07F18BFC6021BBFD17F1DBFCBF61FBFA7
:10568000996722BF25D224BF563627BF159429BF5C
:105690004AEB2BBFDE3B2EBFBB8530BFC9C832BF34
:1056A000F30435BF233A37BF426839BF3B8F3BBF56
:1056B000F9AE3DBF67C73FBF70D841BF01E243BFEE
:1056C00003E445BF65DE47BF12D149BFF8BB4BBFFE
:1056D000029F4DBF207A4FBF3D4D51BF491853BF68
:1056E00031DB54BFE59556BF534858BF6AF259BFE6
:1056F0001A945BBF532D5DBF05BE5EBF214660BFE0
:1057000097C561BF5A3C63BF59AA64BF880F66BF83
:10571000D86B67BF3CBF68BFA7096ABF0C4B6BBFA4
:105720005E836CBF93B26DBF9ED86EBF73F56FBFC3
:10573000080971BF521372BF471473BFDD0B74BFEA
:105740000BFA74BFC6DE75BF07BA76BFC58B77BFCD
:10575000F85378BF981279BF9DC779BF02737ABF9B
:10576000BE147BBFCDAC7BBF283B7CBFC9BF7CBF19
:10577000AC3A7DBFCCAB7DBF23137EBFB0707EBF84
:105780006DC47EBF580E7FBF6D4E7FBFAB847FBFA1
:105790000FB17FBF97D37FBF43EC7FBF11FB7FBFAC
:1057A000000080BF11FB7FBF43EC7FBF97D37FBF5B
:1057B0000FB17FBFAB847FBF6D4E7FBF580E7FBFE1
:1057C0006DC47EBFB0707EBF23137EBFCCAB7DBFE8
:1057D000AC3A7DBFC9BF7CBF283B7CBFCDAC7BBF93
:1057E000BE147BBF02737ABF9DC779BF981279BF81
:1057F000F85378BFC58B77BF07BA76BFC6DE75BFD3
:105800000BFA74BFDD0B74BF471473BF521372BF22
:10581000080971BF73F56FBF9ED86EBF93B26DBF9D
:105820005E836CBF0C4B6BBFA7096ABF3CBF68BFF0
:10583000D86B67BF880F66BF59AA64BF5A3C63BF65
:1058400097C561BF214660BF05BE5EBF532D5DBFDA
:105850001A945BBF6AF259BF534858BFE59556BFCB
:1058600031DB54BF491853BF3D4D51BF207A4FBF64
:10587000029F4DBFF8BB4BBF12D149BF65DE47BF8A
:1058800003E445BF01E243BF70D841BF67C73FBFD4
:10589000F9AE3DBF3B8F3BBF426839BF233A37BFAC
:1058A000F30435BFC9C832BFBB8530BFDE3B2EBF56
:1058B0004AEB2BBF159429BF563627BF25D224BFEC
:1058C000996722BFCBF61FBFD17F1DBFC6021BBF8A
:1058D000C07F18BFD9F615BF2A6813BFCDD310BF3C
:1058E000DA390EBF6B9A0BBF9BF508BF824B06BF20
:1058F0003D9C03BFE4E700BF275DFCBECBE0F6BEE6
:10590000EA5AF1BEBBCBEBBE7533E6BE4F92E0BEAA
:1059100080E8DABE4136D5BECA7BCFBE53B9C9BE18
:1059200015EFC3BE491DBEBE2A44B8BEEF63B2BE6A
:10593000D47CACBE128FA6BEE59AA0BE86A09ABE4D
:1059400032A094BE229A8EBE938E88BEC07D82BE47
:10595000CCCF78BE7F9A6CBE135C60BE011554BE7E
:10596000C2C547BECF6E3BBEA2102FBEB5AB22BE96
:10597000834016BE87CF09BE73B2FABD2FBCE1BD0E
:1059800036BDC8BD80B6AFBD04A996BD752B7BBD25
:105990002EFB48BD2BC316BDB10AC9BC920E49BC33
:1059A00000000080C859000800000020100000001E
:1059B00058480008D859000810000020F8060000D8
:1059C000684800080000000000000000010000001E
:0859D0001000000000127A0033
:04000005080000ED02
:00000001FF
